{
  "_format": "hh-sol-artifact-1",
  "contractName": "Market",
  "sourceName": "contracts/Market.sol",
  "abi": [
    {
      "inputs": [
        {
          "internalType": "address",
          "name": "_park",
          "type": "address"
        },
        {
          "internalType": "address",
          "name": "_token",
          "type": "address"
        }
      ],
      "stateMutability": "nonpayable",
      "type": "constructor"
    },
    {
      "anonymous": false,
      "inputs": [
        {
          "indexed": true,
          "internalType": "uint256",
          "name": "itemId",
          "type": "uint256"
        },
        {
          "indexed": true,
          "internalType": "uint256",
          "name": "tokenId",
          "type": "uint256"
        },
        {
          "indexed": false,
          "internalType": "address",
          "name": "seller",
          "type": "address"
        },
        {
          "indexed": false,
          "internalType": "address",
          "name": "owner",
          "type": "address"
        },
        {
          "indexed": false,
          "internalType": "uint256",
          "name": "price",
          "type": "uint256"
        },
        {
          "indexed": false,
          "internalType": "bool",
          "name": "sold",
          "type": "bool"
        }
      ],
      "name": "MarketItemCreated",
      "type": "event"
    },
    {
      "anonymous": false,
      "inputs": [
        {
          "indexed": true,
          "internalType": "address",
          "name": "previousOwner",
          "type": "address"
        },
        {
          "indexed": true,
          "internalType": "address",
          "name": "newOwner",
          "type": "address"
        }
      ],
      "name": "OwnershipTransferred",
      "type": "event"
    },
    {
      "inputs": [
        {
          "internalType": "uint256",
          "name": "",
          "type": "uint256"
        }
      ],
      "name": "idMarketItem",
      "outputs": [
        {
          "internalType": "uint256",
          "name": "itemId",
          "type": "uint256"
        },
        {
          "internalType": "uint256",
          "name": "tokenId",
          "type": "uint256"
        },
        {
          "internalType": "address payable",
          "name": "seller",
          "type": "address"
        },
        {
          "internalType": "address payable",
          "name": "owner",
          "type": "address"
        },
        {
          "internalType": "uint256",
          "name": "price",
          "type": "uint256"
        },
        {
          "internalType": "bool",
          "name": "sold",
          "type": "bool"
        }
      ],
      "stateMutability": "view",
      "type": "function"
    },
    {
      "inputs": [
        {
          "internalType": "address",
          "name": "owner",
          "type": "address"
        },
        {
          "internalType": "uint256",
          "name": "tokenId",
          "type": "uint256"
        },
        {
          "internalType": "uint256",
          "name": "_cost",
          "type": "uint256"
        }
      ],
      "name": "listing",
      "outputs": [],
      "stateMutability": "nonpayable",
      "type": "function"
    },
    {
      "inputs": [],
      "name": "owner",
      "outputs": [
        {
          "internalType": "address",
          "name": "",
          "type": "address"
        }
      ],
      "stateMutability": "view",
      "type": "function"
    },
    {
      "inputs": [
        {
          "internalType": "address",
          "name": "owner",
          "type": "address"
        },
        {
          "internalType": "address",
          "name": "to",
          "type": "address"
        },
        {
          "internalType": "uint256",
          "name": "tokenId",
          "type": "uint256"
        },
        {
          "internalType": "uint256",
          "name": "_cost",
          "type": "uint256"
        }
      ],
      "name": "privatePurchase",
      "outputs": [],
      "stateMutability": "nonpayable",
      "type": "function"
    },
    {
      "inputs": [
        {
          "internalType": "address",
          "name": "owner",
          "type": "address"
        },
        {
          "internalType": "address",
          "name": "to",
          "type": "address"
        },
        {
          "internalType": "uint256",
          "name": "tokenId",
          "type": "uint256"
        },
        {
          "internalType": "uint256",
          "name": "_cost",
          "type": "uint256"
        }
      ],
      "name": "publicPurchase",
      "outputs": [],
      "stateMutability": "nonpayable",
      "type": "function"
    },
    {
      "inputs": [],
      "name": "renounceOwnership",
      "outputs": [],
      "stateMutability": "nonpayable",
      "type": "function"
    },
    {
      "inputs": [
        {
          "internalType": "address",
          "name": "tokenAddress",
          "type": "address"
        }
      ],
      "name": "setToken",
      "outputs": [
        {
          "internalType": "bool",
          "name": "",
          "type": "bool"
        }
      ],
      "stateMutability": "nonpayable",
      "type": "function"
    },
    {
      "inputs": [
        {
          "internalType": "address",
          "name": "newOwner",
          "type": "address"
        }
      ],
      "name": "transferOwnership",
      "outputs": [],
      "stateMutability": "nonpayable",
      "type": "function"
    },
    {
      "inputs": [
        {
          "internalType": "address",
          "name": "owner",
          "type": "address"
        },
        {
          "internalType": "address",
          "name": "to",
          "type": "address"
        },
        {
          "internalType": "uint256",
          "name": "tokenId",
          "type": "uint256"
        },
        {
          "internalType": "uint256",
          "name": "_cost",
          "type": "uint256"
        }
      ],
      "name": "whiteListing",
      "outputs": [],
      "stateMutability": "nonpayable",
      "type": "function"
    }
  ],
  "bytecode": "0x60806040523480156200001157600080fd5b506040516200133238038062001332833981016040819052620000349162000109565b6200003f336200009c565b6001600160a01b038216158015906200006057506001600160a01b03811615155b6200006a57600080fd5b600480546001600160a01b039384166001600160a01b0319918216179091556003805492909316911617905562000141565b600080546001600160a01b038381166001600160a01b0319831681178455604051919092169283917f8be0079c531659141344cd1fd0a4f28419497f9722a3daafe3b4186f6b6457e09190a35050565b80516001600160a01b03811681146200010457600080fd5b919050565b600080604083850312156200011d57600080fd5b6200012883620000ec565b91506200013860208401620000ec565b90509250929050565b6111e180620001516000396000f3fe608060405234801561001057600080fd5b50600436106100a35760003560e01c80638da5cb5b11610076578063d40f20b81161005b578063d40f20b8146101d1578063f2fde38b146101e4578063f383d444146101f757600080fd5b80638da5cb5b146101965780638e34d9c2146101be57600080fd5b8063087ae8a2146100a8578063144fa6d714610156578063715018a614610179578063789df66314610183575b600080fd5b6101086100b636600461109c565b6006602052600090815260409020805460018201546002830154600384015460048501546005909501549394929373ffffffffffffffffffffffffffffffffffffffff92831693919092169160ff1686565b60408051968752602087019590955273ffffffffffffffffffffffffffffffffffffffff93841694860194909452911660608401526080830152151560a082015260c0015b60405180910390f35b6101696101643660046110d9565b61020a565b604051901515815260200161014d565b61018161027d565b005b6101816101913660046110fb565b610291565b60005460405173ffffffffffffffffffffffffffffffffffffffff909116815260200161014d565b6101816101cc36600461112e565b610707565b6101816101df36600461112e565b610bb6565b6101816101f23660046110d9565b610d85565b61018161020536600461112e565b610e41565b6000610214610fa6565b73ffffffffffffffffffffffffffffffffffffffff821661023457600080fd5b50600380547fffffffffffffffffffffffff00000000000000000000000000000000000000001673ffffffffffffffffffffffffffffffffffffffff831617905560015b919050565b610285610fa6565b61028f6000611027565b565b600480546040517f5f01e2c100000000000000000000000000000000000000000000000000000000815291820184905260009173ffffffffffffffffffffffffffffffffffffffff90911690635f01e2c190602401602060405180830381865afa158015610303573d6000803e3d6000fd5b505050506040513d601f19601f820116820180604052508101906103279190611170565b905080821061033557600080fd5b600480546040517fe985e9c500000000000000000000000000000000000000000000000000000000815273ffffffffffffffffffffffffffffffffffffffff8781169382019390935230602482015291169063e985e9c590604401602060405180830381865afa1580156103ad573d6000803e3d6000fd5b505050506040513d601f19601f820116820180604052508101906103d19190611189565b61046357600480546040517f06b959e500000000000000000000000000000000000000000000000000000000815273ffffffffffffffffffffffffffffffffffffffff878116938201939093523060248201529116906306b959e590604401600060405180830381600087803b15801561044a57600080fd5b505af115801561045e573d6000803e3d6000fd5b505050505b6003546040517fdd62ed3e00000000000000000000000000000000000000000000000000000000815273ffffffffffffffffffffffffffffffffffffffff86811660048301523060248301528492169063dd62ed3e90604401602060405180830381865afa1580156104d9573d6000803e3d6000fd5b505050506040513d601f19601f820116820180604052508101906104fd9190611170565b101561058f576003546040517f81ef264400000000000000000000000000000000000000000000000000000000815273ffffffffffffffffffffffffffffffffffffffff8681166004830152306024830152909116906381ef264490604401600060405180830381600087803b15801561057657600080fd5b505af115801561058a573d6000803e3d6000fd5b505050505b61059d600180546001019055565b60006105a860015490565b6040805160c081018252828152602080820188815273ffffffffffffffffffffffffffffffffffffffff808b16848601908152600060608601818152608087018c815260a088018381528e84526006909752888320975188559451600188015591516002870180549185167fffffffffffffffffffffffff0000000000000000000000000000000000000000928316179055915160038701805491909416921691909117909155905160048401559051600590920180549215157fffffffffffffffffffffffffffffffffffffffffffffffffffffffffffffff00909316929092179091559051919250859183917f4a29ff6f650682addfdf8030b3eeb4610ec651b42d8603f2527633347f9489c9916106f8918a918990829073ffffffffffffffffffffffffffffffffffffffff94851681529290931660208301526040820152901515606082015260800190565b60405180910390a35050505050565b60008281526005602052604080822080547fffffffffffffffffffffffff00000000000000000000000000000000000000001673ffffffffffffffffffffffffffffffffffffffff878116919091179091556004805492517f5f01e2c1000000000000000000000000000000000000000000000000000000008152908101869052911690635f01e2c190602401602060405180830381865afa1580156107b1573d6000803e3d6000fd5b505050506040513d601f19601f820116820180604052508101906107d59190611170565b90508082106107e357600080fd5b600480546040517fe985e9c500000000000000000000000000000000000000000000000000000000815273ffffffffffffffffffffffffffffffffffffffff8881169382019390935230602482015291169063e985e9c590604401602060405180830381865afa15801561085b573d6000803e3d6000fd5b505050506040513d601f19601f8201168201806040525081019061087f9190611189565b61091157600480546040517f06b959e500000000000000000000000000000000000000000000000000000000815273ffffffffffffffffffffffffffffffffffffffff888116938201939093523060248201529116906306b959e590604401600060405180830381600087803b1580156108f857600080fd5b505af115801561090c573d6000803e3d6000fd5b505050505b6003546040517fdd62ed3e00000000000000000000000000000000000000000000000000000000815273ffffffffffffffffffffffffffffffffffffffff87811660048301523060248301528492169063dd62ed3e90604401602060405180830381865afa158015610987573d6000803e3d6000fd5b505050506040513d601f19601f820116820180604052508101906109ab9190611170565b1015610a3d576003546040517f81ef264400000000000000000000000000000000000000000000000000000000815273ffffffffffffffffffffffffffffffffffffffff8781166004830152306024830152909116906381ef264490604401600060405180830381600087803b158015610a2457600080fd5b505af1158015610a38573d6000803e3d6000fd5b505050505b610a4b600180546001019055565b6000610a5660015490565b6040805160c081018252828152602080820188815273ffffffffffffffffffffffffffffffffffffffff808c16848601908152600060608601818152608087018c815260a088018381528e84526006909752888320975188559451600188015591516002870180549185167fffffffffffffffffffffffff0000000000000000000000000000000000000000928316179055915160038701805491909416921691909117909155905160048401559051600590920180549215157fffffffffffffffffffffffffffffffffffffffffffffffffffffffffffffff00909316929092179091559051919250859183917f4a29ff6f650682addfdf8030b3eeb4610ec651b42d8603f2527633347f9489c991610ba6918b918990829073ffffffffffffffffffffffffffffffffffffffff94851681529290931660208301526040820152901515606082015260800190565b60405180910390a3505050505050565b600480546040517f23b872dd00000000000000000000000000000000000000000000000000000000815273ffffffffffffffffffffffffffffffffffffffff878116938201939093528583166024820152604481018590529116906323b872dd90606401600060405180830381600087803b158015610c3457600080fd5b505af1158015610c48573d6000803e3d6000fd5b50506003546040517f23b872dd00000000000000000000000000000000000000000000000000000000815273ffffffffffffffffffffffffffffffffffffffff878116600483015288811660248301526044820186905290911692506323b872dd91506064015b6020604051808303816000875af1158015610cce573d6000803e3d6000fd5b505050506040513d601f19601f82011682018060405250810190610cf29190611189565b50600082815260066020526040902060038101805473ffffffffffffffffffffffffffffffffffffffff86167fffffffffffffffffffffffff000000000000000000000000000000000000000090911617905560050180547fffffffffffffffffffffffffffffffffffffffffffffffffffffffffffffff00166001179055610d7f600280546001019055565b50505050565b610d8d610fa6565b73ffffffffffffffffffffffffffffffffffffffff8116610e35576040517f08c379a000000000000000000000000000000000000000000000000000000000815260206004820152602660248201527f4f776e61626c653a206e6577206f776e657220697320746865207a65726f206160448201527f646472657373000000000000000000000000000000000000000000000000000060648201526084015b60405180910390fd5b610e3e81611027565b50565b60008281526005602052604090205473ffffffffffffffffffffffffffffffffffffffff848116911614610e7457600080fd5b600480546040517f23b872dd00000000000000000000000000000000000000000000000000000000815273ffffffffffffffffffffffffffffffffffffffff878116938201939093528583166024820152604481018590529116906323b872dd90606401600060405180830381600087803b158015610ef257600080fd5b505af1158015610f06573d6000803e3d6000fd5b5050506000838152600560205260409081902080547fffffffffffffffffffffffff000000000000000000000000000000000000000016905560035490517f23b872dd00000000000000000000000000000000000000000000000000000000815273ffffffffffffffffffffffffffffffffffffffff868116600483015287811660248301526044820185905290911691506323b872dd90606401610caf565b60005473ffffffffffffffffffffffffffffffffffffffff16331461028f576040517f08c379a000000000000000000000000000000000000000000000000000000000815260206004820181905260248201527f4f776e61626c653a2063616c6c6572206973206e6f7420746865206f776e65726044820152606401610e2c565b6000805473ffffffffffffffffffffffffffffffffffffffff8381167fffffffffffffffffffffffff0000000000000000000000000000000000000000831681178455604051919092169283917f8be0079c531659141344cd1fd0a4f28419497f9722a3daafe3b4186f6b6457e09190a35050565b6000602082840312156110ae57600080fd5b5035919050565b803573ffffffffffffffffffffffffffffffffffffffff8116811461027857600080fd5b6000602082840312156110eb57600080fd5b6110f4826110b5565b9392505050565b60008060006060848603121561111057600080fd5b611119846110b5565b95602085013595506040909401359392505050565b6000806000806080858703121561114457600080fd5b61114d856110b5565b935061115b602086016110b5565b93969395505050506040820135916060013590565b60006020828403121561118257600080fd5b5051919050565b60006020828403121561119b57600080fd5b815180151581146110f457600080fdfea2646970667358221220771ac8f9f175ee3eb63f18f300c4d969d62a776f09a970504e579830e9276c7d64736f6c63430008110033",
  "linkReferences": {},
  "deployedLinkReferences": {}
}